{
  "abi": [
    {
      "inputs": [
        {
          "internalType": "address",
          "name": "target",
          "type": "address"
        },
        {
          "internalType": "uint256",
          "name": "expiryBlock",
          "type": "uint256"
        },
        {
          "internalType": "uint256",
          "name": "minContrib",
          "type": "uint256"
        }
      ],
      "stateMutability": "nonpayable",
      "type": "constructor"
    },
    {
      "inputs": [
        {
          "internalType": "address",
          "name": "from",
          "type": "address"
        },
        {
          "internalType": "address",
          "name": "tokenAddress",
          "type": "address"
        },
        {
          "internalType": "uint256",
          "name": "amount",
          "type": "uint256"
        }
      ],
      "name": "addReward",
      "outputs": [],
      "stateMutability": "nonpayable",
      "type": "function"
    },
    {
      "inputs": [
        {
          "internalType": "address",
          "name": "recipient",
          "type": "address"
        },
        {
          "internalType": "address[]",
          "name": "requestedRewards",
          "type": "address[]"
        }
      ],
      "name": "claimReward",
      "outputs": [],
      "stateMutability": "nonpayable",
      "type": "function"
    },
    {
      "inputs": [
        {
          "internalType": "address",
          "name": "from",
          "type": "address"
        },
        {
          "internalType": "uint256",
          "name": "amount",
          "type": "uint256"
        }
      ],
      "name": "contribute",
      "outputs": [],
      "stateMutability": "nonpayable",
      "type": "function"
    },
    {
      "inputs": [],
      "name": "contributed",
      "outputs": [
        {
          "internalType": "uint256",
          "name": "",
          "type": "uint256"
        }
      ],
      "stateMutability": "view",
      "type": "function"
    },
    {
      "inputs": [
        {
          "internalType": "address",
          "name": "contributor",
          "type": "address"
        }
      ],
      "name": "contributedOf",
      "outputs": [
        {
          "internalType": "uint256",
          "name": "",
          "type": "uint256"
        }
      ],
      "stateMutability": "view",
      "type": "function"
    },
    {
      "inputs": [
        {
          "internalType": "address",
          "name": "",
          "type": "address"
        }
      ],
      "name": "contributions",
      "outputs": [
        {
          "internalType": "uint256",
          "name": "",
          "type": "uint256"
        }
      ],
      "stateMutability": "view",
      "type": "function"
    },
    {
      "inputs": [],
      "name": "expiry",
      "outputs": [
        {
          "internalType": "uint256",
          "name": "",
          "type": "uint256"
        }
      ],
      "stateMutability": "view",
      "type": "function"
    },
    {
      "inputs": [],
      "name": "isActive",
      "outputs": [
        {
          "internalType": "bool",
          "name": "",
          "type": "bool"
        }
      ],
      "stateMutability": "view",
      "type": "function"
    },
    {
      "inputs": [],
      "name": "isComplete",
      "outputs": [
        {
          "internalType": "bool",
          "name": "",
          "type": "bool"
        }
      ],
      "stateMutability": "view",
      "type": "function"
    },
    {
      "inputs": [],
      "name": "isRefund",
      "outputs": [
        {
          "internalType": "bool",
          "name": "",
          "type": "bool"
        }
      ],
      "stateMutability": "view",
      "type": "function"
    },
    {
      "inputs": [],
      "name": "minContribution",
      "outputs": [
        {
          "internalType": "uint256",
          "name": "",
          "type": "uint256"
        }
      ],
      "stateMutability": "view",
      "type": "function"
    },
    {
      "inputs": [
        {
          "internalType": "address",
          "name": "recipient",
          "type": "address"
        }
      ],
      "name": "refundContribution",
      "outputs": [],
      "stateMutability": "nonpayable",
      "type": "function"
    },
    {
      "inputs": [
        {
          "internalType": "address",
          "name": "recipient",
          "type": "address"
        },
        {
          "internalType": "address",
          "name": "reward",
          "type": "address"
        }
      ],
      "name": "refundReward",
      "outputs": [],
      "stateMutability": "nonpayable",
      "type": "function"
    },
    {
      "inputs": [
        {
          "internalType": "uint256",
          "name": "contribution",
          "type": "uint256"
        },
        {
          "internalType": "address",
          "name": "token",
          "type": "address"
        }
      ],
      "name": "rewardAmount",
      "outputs": [
        {
          "internalType": "uint256",
          "name": "",
          "type": "uint256"
        }
      ],
      "stateMutability": "view",
      "type": "function"
    },
    {
      "inputs": [
        {
          "internalType": "address",
          "name": "",
          "type": "address"
        }
      ],
      "name": "rewards",
      "outputs": [
        {
          "internalType": "uint256",
          "name": "",
          "type": "uint256"
        }
      ],
      "stateMutability": "view",
      "type": "function"
    },
    {
      "inputs": [
        {
          "internalType": "address",
          "name": "",
          "type": "address"
        }
      ],
      "name": "rewardsContributions",
      "outputs": [
        {
          "internalType": "uint256",
          "name": "",
          "type": "uint256"
        }
      ],
      "stateMutability": "view",
      "type": "function"
    },
    {
      "inputs": [],
      "name": "targetToken",
      "outputs": [
        {
          "internalType": "address",
          "name": "",
          "type": "address"
        }
      ],
      "stateMutability": "view",
      "type": "function"
    }
  ],
  "bytecode": {
    "object": "0x608060405234801561001057600080fd5b50604051610cd8380380610cd883398101604081905261002f9161005b565b600180546001600160a01b0319166001600160a01b03949094169390931790925560005560065561009e565b60008060006060848603121561007057600080fd5b83516001600160a01b038116811461008757600080fd5b602085015160409095015190969495509392505050565b610c2b806100ad6000396000f3fe608060405234801561001057600080fd5b506004361061010b5760003560e01c80639370d20d116100a2578063ba60546111610071578063ba60546114610220578063bc4849ec14610240578063d0ed26ae14610269578063d921eb781461027c578063e184c9be1461028457600080fd5b80639370d20d146101e9578063aaffadf3146101fc578063b2fa1c9e14610205578063b9ceef221461020d57600080fd5b8063327107f7116100de578063327107f7146101765780633685ffe7146101a157806342e94c90146101b65780638418cd99146101d657600080fd5b80630700037d146101105780630bf2a63414610143578063112f19071461015657806322f3e2d41461015f575b600080fd5b61013061011e3660046109d6565b60036020526000908152604090205481565b6040519081526020015b60405180910390f35b6101306101513660046109f1565b61028d565b61013060055481565b6000544211155b604051901515815260200161013a565b600154610189906001600160a01b031681565b6040516001600160a01b03909116815260200161013a565b6101b46101af366004610a1d565b6102c7565b005b6101306101c43660046109d6565b60046020526000908152604090205481565b6101b46101e4366004610aa3565b610508565b6101b46101f7366004610acd565b61060f565b61013060065481565b61016661073f565b6101b461021b3660046109d6565b61075a565b61013061022e3660046109d6565b60026020526000908152604090205481565b61013061024e3660046109d6565b6001600160a01b031660009081526004602052604090205490565b6101b4610277366004610af7565b610827565b610166610955565b61013060005481565b6005546001600160a01b0382166000908152600360205260408120549091906102b69085610b49565b6102c09190610b68565b9392505050565b6102cf61073f565b61030f5760405162461bcd60e51b815260206004820152600c60248201526b6e6f7420636f6d706c65746560a01b60448201526064015b60405180910390fd5b6001600160a01b038316600090815260046020526040902054806103755760405162461bcd60e51b815260206004820152601960248201527f6e6f20636f6e747269627574696f6e7320746f20636c61696d000000000000006044820152606401610306565b6001600160a01b03841660009081526004602052604081208190555b8281101561050157600360008585848181106103af576103af610b8a565b90506020020160208101906103c491906109d6565b6001600160a01b031681526020810191909152604001600020546104215760405162461bcd60e51b81526020600482015260146024820152733737903932bbb0b93239903337b9103a37b5b2b760611b6044820152606401610306565b600061044e8386868581811061043957610439610b8a565b905060200201602081019061015191906109d6565b905084848381811061046257610462610b8a565b905060200201602081019061047791906109d6565b60405163a9059cbb60e01b81526001600160a01b03888116600483015260248201849052919091169063a9059cbb906044016020604051808303816000875af11580156104c8573d6000803e3d6000fd5b505050506040513d601f19601f820116820180604052508101906104ec9190610ba0565b505080806104f990610bc2565b915050610391565b5050505050565b6000544211156105475760405162461bcd60e51b815260206004820152600a6024820152696e6f742061637469766560b01b6044820152606401610306565b6001546040516323b872dd60e01b81526001600160a01b03848116600483015230602483015260448201849052909116906323b872dd906064016020604051808303816000875af11580156105a0573d6000803e3d6000fd5b505050506040513d601f19601f820116820180604052508101906105c49190610ba0565b506001600160a01b038216600090815260046020526040812080548392906105ed908490610bdd565b9250508190555080600560008282546106069190610bdd565b90915550505050565b610617610955565b6106505760405162461bcd60e51b815260206004820152600a6024820152696e6f20726566756e647360b01b6044820152606401610306565b600061065c838361096d565b6001600160a01b038116600090815260026020526040902054909150806106b75760405162461bcd60e51b815260206004820152600f60248201526e1b9bdd0818dbdb9d1c9a589d5d1959608a1b6044820152606401610306565b6001600160a01b03828116600090815260026020526040808220919091555163a9059cbb60e01b81528582166004820152602481018390529084169063a9059cbb906044016020604051808303816000875af115801561071b573d6000803e3d6000fd5b505050506040513d601f19601f820116820180604052508101906105019190610ba0565b6000805442118015610755575060065460055410155b905090565b610762610955565b61079b5760405162461bcd60e51b815260206004820152600a6024820152696e6f20726566756e647360b01b6044820152606401610306565b6001546001600160a01b0382811660008181526004602081905260409182902054915163a9059cbb60e01b815290810192909252602482015291169063a9059cbb906044016020604051808303816000875af11580156107ff573d6000803e3d6000fd5b505050506040513d601f19601f820116820180604052508101906108239190610ba0565b5050565b6000544211156108665760405162461bcd60e51b815260206004820152600a6024820152696e6f742061637469766560b01b6044820152606401610306565b8060026000610875868661096d565b6001600160a01b03166001600160a01b0316815260200190815260200160002060008282546108a49190610bdd565b90915550506001600160a01b038216600090815260036020526040812080548392906108d1908490610bdd565b90915550506040516323b872dd60e01b81526001600160a01b038481166004830152306024830152604482018390528316906323b872dd906064016020604051808303816000875af115801561092b573d6000803e3d6000fd5b505050506040513d601f19601f8201168201806040525081019061094f9190610ba0565b50505050565b60008054421180156107555750506006546005541090565b6040516bffffffffffffffffffffffff19606084811b8216602084015283901b1660348201526000906048016040516020818303038152906040528051906020012060601c905092915050565b80356001600160a01b03811681146109d157600080fd5b919050565b6000602082840312156109e857600080fd5b6102c0826109ba565b60008060408385031215610a0457600080fd5b82359150610a14602084016109ba565b90509250929050565b600080600060408486031215610a3257600080fd5b610a3b846109ba565b9250602084013567ffffffffffffffff80821115610a5857600080fd5b818601915086601f830112610a6c57600080fd5b813581811115610a7b57600080fd5b8760208260051b8501011115610a9057600080fd5b6020830194508093505050509250925092565b60008060408385031215610ab657600080fd5b610abf836109ba565b946020939093013593505050565b60008060408385031215610ae057600080fd5b610ae9836109ba565b9150610a14602084016109ba565b600080600060608486031215610b0c57600080fd5b610b15846109ba565b9250610b23602085016109ba565b9150604084013590509250925092565b634e487b7160e01b600052601160045260246000fd5b6000816000190483118215151615610b6357610b63610b33565b500290565b600082610b8557634e487b7160e01b600052601260045260246000fd5b500490565b634e487b7160e01b600052603260045260246000fd5b600060208284031215610bb257600080fd5b815180151581146102c057600080fd5b6000600019821415610bd657610bd6610b33565b5060010190565b60008219821115610bf057610bf0610b33565b50019056fea2646970667358221220c26a98f6055b5a6426368d4fce947ec46345010f647e9fc934e707a84a41bb4764736f6c634300080c0033",
    "linkReferences": {}
  }
}